:020000040800F2
:10000000A8070020D50100085D210008A91F0008ED
:10001000AD1F00084D0A0008C521000800000000BF
:100020000000000000000000000000006521000842
:10003000510A00080000000061210008A921000801
:10004000EF010008EF010008EF010008EF010008D0
:10005000EF010008EF010008EF010008EF010008C0
:10006000EF010008EF010008EF010008EF010008B0
:10007000EF010008EF010008EF010008EF010008A0
:10008000EF010008EF010008EF010008EF01000890
:10009000EF010008EF010008EF010008EF01000880
:1000A000EF010008EF010008EF010008EF01000870
:1000B000EF010008EF010008EF010008EF01000860
:1000C000EF010008EF010008EF010008EF01000850
:1000D000EF010008EF010008EF010008EF01000840
:1000E000EF010008EF010008EF01000800F002F83E
:1000F00000F060F814A696E8000CB244B344DA4568
:1001000001D100F057F8BAE80F000FA696E83000CA
:10011000A5EB040504EB0607AAEB0704A7F101070A
:100120004FEA15154FEA3414A4F10104AC4201D38F
:1001300000F040F813F0010F18BFFB1A43F0010361
:1001400000F001F8DBE71847B4370000D4370000AF
:10015000103A24BF78C878C1FAD8520724BF30C8F3
:1001600030C144BF04680C60704700007047000055
:100170000023002400250026103A28BF78C1FBD8B0
:10018000520728BF30C148BF0B607047662903F093
:100190005283752900F03E80002070471FB500F0A3
:1001A000DFFA04000020002103F03CF9E0601FBDED
:1001B00010B510BD00F0D4FB1146FFF7EFFF02F0C1
:1001C00083FB00F0F2FB03B4FFF7F2FF03BC00F087
:1001D00035FC00000948804709480047FEE7FEE774
:1001E000FEE7FEE7FEE7FEE7FEE7FEE7FEE7FEE7E7
:1001F00004480549054A064B70470000AD21000838
:10020000ED000008A8010020A8070020A803002096
:10021000A80300202DE9F041064600241068752946
:10022000314616A510D0AFF30080002802DA404214
:1002300013A507E031688A0701D512A502E0490736
:1002400004D511A5012401E0AFF3008000210A22AA
:1002500006F1240709E0B0FBF2FCB0FBF2F302FB6D
:100260001C00303078541846491C0028F3D123462E
:100270002A463046BDE8F04100F00BB8000000000F
:100280002D0000002B000000200000007047704788
:1002900070472DE9F0470D4699469246044600F115
:1002A00024080168880604D5E06921F01001216066
:1002B00000E00120A84201DD471B00E00027A16902
:1002C0007A1902EB0900081AA0612078C00602D44E
:1002D0002046AFF30080002608E0D4E901211AF897
:1002E00006009047206A401C761C20624E45F4DBD5
:1002F0002078C0060AD52046AFF3008006E0D4E996
:10030000012130209047206A401C2062381EA7F14E
:100310000107F4DC07E0D4E9012118F80500904753
:10032000206A401C2062281EA5F10105F3DC20464E
:10033000AFF300802078000602D50220BDE8F087E8
:100340000120FBE72DE9FF4F0C461E464FF0FF371B
:100350008BB0D2E90001DDF860800A908A46C1F3D3
:100360000A5505B93D46002108464FF00000BAF194
:10037000000F00F4400005DA00EB80004FF440016C
:1003800001EA50004FEA9059B9F1010F00DDB9467A
:100390000A9850EA4A000ED044F61050A5F2FF35F4
:1003A00045432F14B8F1000F1ED07542291E1EDDE3
:1003B000C9F100021CE0B8F1010F4FF0000001D0BC
:1003C000302103E0F24305E02154401CB042FBDB46
:1003D00030460022002121540B99C1F80880C1E960
:1003E00000200FB0BDE8F08FBD1B6D1CDEE74A4654
:1003F00000DA694206A800F03DFA06AB93E8070070
:1004000003AB83E8070050460A9902F02EFC8DE802
:100410000700A0F500501F3800900398002D0ADD5A
:1004200042F21F014A460844002303A9039068468C
:1004300002F098FE09E0A0F500504A461F3800235C
:1004400003A90390684602F0A2FE8DE807000004AD
:10045000000C03D04FF0FF30410800E01046B8F127
:10046000000F03D00022009215461EE0751E05D431
:1004700000F07AF9303262556D1EF9D5B34601228B
:10048000084302D000227F1C04E02078302801D1EC
:1004900000227F1E002A099784D01DE0112D07DA63
:1004A00000F062F9303262556D1C50EA0102F5D15C
:1004B000084302D00098C8B10EE00021681E05E094
:1004C000235C625C63542254401E491C8142F7DB6A
:1004D000AB46A81B401E0990002004F80B000B98A7
:1004E000099AC0F80880C0E9002B7AE711264FF07E
:1004F000000857E72DE9F04F88460446D21D22F048
:10050000070191B0D1E90001CDE90A0102F076FFBF
:1005100002460B98C00F01D02D2007E0206881070C
:1005200001D52B2002E0202101EAC000032A099016
:1005300001D0072A05DB03464146204600F05AF960
:100540000BE12078800601D5E06900E00620B8F1D3
:10055000650F814606D0B8F1660F18D0B8F1670F65
:1005600070D131E00020B9F1110F009001DB1123AF
:1005700001E009F101030AAA01A90CA8FFF7E2FEB4
:10058000DDE90C70002609F10105834647E00120F2
:100590004B4600904FF000470AAA01A90CA8FFF7AC
:1005A000D1FEDDE90DB00C995D46002610B909F1C8
:1005B00001000D18B9EB050003D4C0F1FF3609F1B5
:1005C0000105A5EB09002BE0B9F1010F01DA4FF0AD
:1005D00001090020B9F1110F0090484601DD1123F7
:1005E00000E003460AAA01A90CA8FFF7ABFEDDE96B
:1005F0000C704D4600268346207800070AD4AB4590
:1006000000DA5D4601A8012D04DD411911F8011C35
:10061000302907D04F4502DA17F1040F04DA012020
:1006200082460FE06D1EEEE7002F02DCED1B3E441C
:1006300003E0781CA84200DD7D1CB81B00F1010A14
:100640004FF000472078000703D4AA4501DB4FF0A4
:10065000FF3A0021B7F1004F0DF143088DF8431028
:1006600024D002202B23002F01DA7F422D230A21E0
:10067000021EA0F1010000DC5FB197FBF1FC97FBCB
:10068000F1F201FB1C7C17460CF1300C08F801CD8F
:10069000EEE7A8F1010003702188090501D5452185
:1006A00000E06521A0F1010800F8011C09980FA9DC
:1006B000A1EB0807FF1D00B10120411901EBEA7011
:1006C000A1693844081A401EA0612078C00602D4EF
:1006D0002046AFF30080099828B1D4E90121904762
:1006E000206A401C20622078C00622D52046AFF345
:1006F00000801EE0002E04DBB34502DD01A8805D12
:1007000000E03020D4E901219047206A401C20629B
:10071000761CAAF101005FEA000A0AD100F020F875
:10072000C0680168405CD4E901219047206A401C00
:100730002062281EA5F10105DCDC07E0D4E90121D7
:1007400018F8010B9047206A401C2062381EA7F160
:100750000107F3DC2046AFF30080032011B041E62F
:10076000004870473000002030B5B0F10A0271F146
:1007700000034FEA900E4EEA817EB0EB0E0061EB73
:1007800091014FEA101E4EEA017E10EB0E0041EB84
:1007900011114FEA102E4EEA016E10EB0E0041EBE4
:1007A00011214FEA104E4EEA014E10EB0E0041EBC4
:1007B0001141401841F100014FEAD00040EA417078
:1007C0004FEAD1014FEA810444EA907410EB8005AE
:1007D00044EB01046D1944EB0404521BA3414FF098
:1007E000000348BF0A3200D530BD401C41F1000172
:1007F00030BD00002DE9F0411F4604460326016884
:10080000072A01F4006004DB08B116A505E016A56F
:1008100003E008B115A500E015A521F01000206047
:10082000A069C01EA0610FB1401EA0612046AFF3B9
:1008300000804FB1D4E9012138469047206A401C1E
:100840002062C01C206206E0206AFAE7D4E9012198
:1008500015F8010B9047761EF8D22046AFF30080C2
:10086000BDE8F0814E414E006E616E00494E46007B
:10087000696E66002DE9F047814616468AB0354814
:1008800078440DC88DE80D0032487844801C03ACD4
:100890000DC884E80D0041F69B300844372190FBD9
:1008A000F1F290FBF1F5A5F1800501FB12041B3C70
:1008B00002D56442012000E00020DFF898A08046C5
:1008C0000027FA44AAF1BE0A0EE0E0070AD0324639
:1008D000684607EB470101230AEB810102F057FC50
:1008E0008DE8070064107F1C002CEED1194F7F4467
:1008F000AE3F19E0E80715D007EB04100DF1180A18
:1009000090E80E008AE80E00C068F04201D1981904
:1009100008903246012306A903A802F038FC03AB75
:1009200083E807006D10641C002DE3D14FF0010334
:1009300032466946B8F1000F03A802D002F012FC5B
:1009400001E002F024FCC9E90001C9F808200AB05E
:10095000BDE8F087343000000048704710000020E8
:100960007546FFF7F9FFAE4605006946534620F08D
:100970000700854618B020B5FFF73AFCBDE82040D7
:100980004FF000064FF000074FF000084FF0000B4B
:10099000AC46ACE8C009ACE8C009ACE8C009ACE8BA
:1009A000C00921F007018D46704710B50446AFF32A
:1009B00000802046BDE81040FFF705BC4FF0013C29
:1009C00050F8042B51F8043B9A4221D1A2EB0C03BE
:1009D000934313EACC1317D150F8042B51F8043B7E
:1009E0009A4215D1A2EB0C03934313EACC130BD11B
:1009F00050F8042B51F8043B9A4209D1A2EB0C03A6
:100A0000934313EACC13DBD04FF00000704700BFD4
:100A1000D01A01BAB1FA81F101F0180122FA01F0FD
:100A2000CB40DBB2C0B2C01AC1F120012CFA01F3F5
:100A3000D11A914311EAC311E6D170470149182038
:100A4000ABBEFEE72600020070470000FEE7000094
:100A50007047000040F27800C2F200000068704762
:100A600040F27801C2F20001086000F021BE0000EF
:100A700070B586B0002641F21800CDE90466CDE9D4
:100A80000266C4F20200016840F6000441F004016D
:100A900001600168C4F2010401F0040101910199AF
:100AA000016802AD41F0080101600068294600F0CC
:100AB00008000190019880200290204600F020F864
:100AC0000320CDE9020604F580602946049600F073
:100AD00017F806B070BD0000B0B5044600F024F968
:100AE000054640F20000C2F200000078611C18BF09
:100AF000044400BF00F018F9401BA042FAD3B0BD77
:100B00002DE9F04F82B00E68002E00F0FD8041F21A
:100B10000042C4F20102042340F2004E904208BF9A
:100B200003234FF6FF7CC4F2010E0093002401233F
:100B3000C1F2100C4FF0000A4FF000094BE000BF6B
:100B400041F20002C4F20102009F904208BF022756
:100B500004F00C030F229A402BEA020207FA03F377
:100B60004FEA9A051A4346F825204E6840F20C4594
:100B7000F202DEF8082054BF22EA080242EA080224
:100B8000C4F20105CEF808202A68B30254BF22EA55
:100B9000080242EA08022A60B303DEF8042054BFC8
:100BA00022EA080242EA0802F303CEF80420DEF843
:100BB00000204FF0010354BF22EA080242EA080273
:100BC000CEF800200E680AF1010A36FA0AF204F1A2
:100BD000040400F0998003FA0AFB16EA0B08F1D02E
:100BE0004E68664512DC122E56D8DFE806F0350B4B
:100BF0004D495555555555555555555555555545C9
:100C0000510000BFD1F80C9046E000BF4FF6FF72D4
:100C1000C1F2210296420FDC0022C1F2110296427B
:100C20001AD00022C1F21202964215D00022C1F25F
:100C30002102964210D02FE00022C1F222029642F9
:100C40000AD00022C1F23102964205D00022C1F240
:100C50003202964220D100BF8A684AB1012A14BFED
:100C6000C0F814B0C0F810B04FF0080914E000BF8D
:100C70004FF0040910E000BFCA6802F104090BE05C
:100C80004FF0000908E000BFCA6802F1080903E05C
:100C9000CA6802F10C0900BF02462646B8F5807FFB
:100CA00024BF0432203E17680F25B54027EA05050A
:100CB00009FA06F635431560CA79D2067FF582AF88
:100CC00041F21803C4F202031A68AEF57E7642F0D0
:100CD00001021A601A6802F001020192019A2AF0D8
:100CE000030256F802B040F60002C4F2010290423C
:100CF00008D040F60042C4F2010290427FF420AFD7
:100D0000012725E7002723E702B0BDE8F08F0000A8
:100D10008068084018BF012070470000002A08BF03
:100D2000090401617047000040F2A410C2F2000003
:100D30000068704740F2000040F2A411C2F20000C7
:100D4000C2F2000100780A68104408607047000091
:100D500080B542F20000C4F20200016841F01001C7
:100D60000160032000F07AF80F2000F005F800F091
:100D700027F8002080BD000070B540F20006C2F2E6
:100D8000000640F208013278C2F200014FF47A7393
:100D90000968B3FBF2F20446B1FBF2F1084600F039
:100DA00073FB0F2C4FF0010508D838B94FF0FF3016
:100DB00021460022002500F025F87460284670BD09
:100DC00082B041F21800C4F202000168022241F030
:100DD00001010160016801F001010191019941687F
:100DE00041F080514160406800F0805000900098D0
:100DF0000420C4F20100016862F31A61016002B0CC
:100E00007047000010B54EF60C5CCEF2000CDCF81A
:100E10000030C3F3022E8EF00704042C28BF0424F4
:100E2000BEF103034FF0FF3E0EFA04F438BF002377
:100E3000A14399400EFA03F39A43114300F00F02C5
:100E400000F160430901043A03F564436244002859
:100E500048BF02F10C03197010BD00004EF60C5192
:100E6000CEF200010A684FF6FF031A4060F30A222F
:100E700042F0806040F0FD7008607047002804BFB9
:100E8000012070472DE9F04381B042F20008C4F21E
:100E900002080446D8F800000D4600F00700814221
:100EA0000CD9D8F8000020F007002843C8F800004B
:100EB000D8F8000000F00700A8426CD1206841F289
:100EC00004098107C4F2020917D5410705D5D9F8ED
:100ED000001041F4E061C9F80010010705D5D9F808
:100EE000001041F46051C9F80010D9F80010A26850
:100EF00021F0F0011143C9F80010C00742D1D8F821
:100F0000000000F0070085420CD2D8F8000020F065
:100F100007002843C8F80000D8F8000000F00700D8
:100F2000A84238D12068410707D5D9F80010E268F7
:100F300021F4E0611143C9F80010000708D5D9F881
:100F40000000216920F4605040EAC100C9F80000A7
:100F5000D9F8002002F00C00082841F20020C0F26D
:100F60007A004DD143F6EA03C2F38341C0F6000391
:100F7000595CD20338D440F60010C0F23D0048431B
:100F80003EE000BF606859F8041C022808D0012820
:100F900026D1890306D4012001B0BDE8F08300BF4B
:100FA0008901F8D5D9F8001021F003010843C9F8E8
:100FB0000000FFF7B9FE064641F28837D9F8000075
:100FC000616800F00C00B0EB810F98D0FFF7ACFE29
:100FD000801BB842F2D9032001B0BDE8F08300BF06
:100FE0008907D8D5DEE700BFD9F8002043F6E8032B
:100FF000C2F34042C0F600039A5C4843B0FBF2F0F3
:10100000D9F8001043F6D002C1F30311C0F6000274
:10101000515C40F2080220FA01F140F20400C2F2F1
:1010200000000068C2F200021160FFF7A5FE002078
:1010300001B0BDE8F083000040F2080041F2040175
:10104000C2F20000C4F202010068096843F6E0023F
:10105000C1F30221C0F60002515CC8407047000095
:1010600040F2080041F20401C2F20000C4F20201A1
:101070000068096843F6E002C1F3C221C0F600022D
:10108000515CC84070470000002804BF0120704731
:101090002DE9F04182B00446007841F20006C00715
:1010A000C4F202060CD0706800F00C00042840F076
:1010B00081803068800303D56068002800F0468195
:1010C000207880071BD5706810F00C0F09D070686D
:1010D00000F00C00082840F087807068C00300F121
:1010E00083803068800703D52069012840F02E8175
:1010F0003068616920F0F80040EAC1003060207873
:10110000000713D4207840072CD4E569002D00F0A7
:101110001881706800F00C00082840F0A780012DAD
:1011200040F00481012002B0BDE8F081A0690028F0
:1011300000F084800020C4F242200121C0F8801415
:10114000FFF7F2FD054600BF706A800700F1B2802C
:10115000FFF7EAFD401B0228F6D9032002B0BDE8E4
:10116000F08100BFF0695FEAC00808D4F06940F080
:101170008050F061F06900F080500090009847F2D4
:101180000007C4F200073868C00549D4386840F445
:1011900080703860FFF7C8FD054600BF3868C0059D
:1011A0003ED4FFF7C1FD401B6428F7D9032002B0ED
:1011B000BDE8F081706800F00C00082803D1706869
:1011C000C0033FF576AF61683068002900F00C81FC
:1011D000B1F5A02F00F00081B1F5803F40F01A81F9
:1011E00040F480301CE100BF2069002840F200007C
:1011F000C4F2422000F0888001210160FFF794FDD5
:10120000054600BF306880073FF572AFFFF78CFDE1
:10121000401B0228F6D9032002B0BDE8F08100BFD0
:10122000E168306A002900F09D80052900F0928075
:10123000012940F0AF8040F00100B1E00020C4F28D
:1012400042200021C0F88014FFF76EFD054600BF64
:10125000706A80077FF556AFFFF766FD401B0228D6
:10126000F6D9032002B0BDE8F08100BF0027C4F228
:10127000422700203866FFF757FD022D05460DD1A5
:101280003068800140F1DE80FFF74EFD401B0228F0
:101290004FF00300F4D902B0BDE8F081306880015E
:1012A0004FD5FFF741FD401B02284FF00300F5D951
:1012B000F1E700BF40F20800C2F20000006844F607
:1012C000D351C1F26201A0FB0101480A019000BFA5
:1012D00000BF0198411E002801913FF413AF00BFE9
:1012E0000198411E002801913FF40CAF00BF019806
:1012F000411E002801913FF405AF00BF0198411E37
:1013000000280191E4D1FDE600210160FFF70CFD0A
:10131000054600BF306880077FF5F1AEFFF704FD9A
:10132000401B02284FF00300F4D9B4E77068216A2B
:1013300000F480328A4209D1616A00F47010884258
:1013400004D1002002B0BDE8F08100BF012002B04E
:10135000BDE8F08140F004003062306A40F00100E6
:101360001EE000BF20F001003062306A20F004006F
:101370003062FFF7D9FC054641F28837306A8007B2
:1013800020D5FFF7D1FC401BB8424FF00300F5D940
:1013900081E700BF20F001003062306A20F00400D5
:1013A0003062FFF7C1FC054641F28837306A80079A
:1013B00008D4FFF7B9FC401BB842F7D9032002B0AC
:1013C000BDE8F081B8F1000F3FF59FAEF06920F065
:1013D0008050F06199E600BF40F4802030603068B2
:1013E00040F480301CE000BF20F480303060306872
:1013F00020F480203060FFF797FC054630688003BA
:101400007FF55EAEFFF790FC401B64284FF00300B1
:10141000F4D940E720F480303060306820F4802038
:101420003060FFF781FC0546306880033FF548AE29
:10143000FFF77AFC401B6428F6D9032002B0BDE810
:10144000F08100BF206AB0F5803F05D17168A268C5
:1014500021F40031114371607168626A21F47411E2
:1014600011430843706001203866FFF75DFC0446B5
:10147000306880013FF565AFFFF756FC001B02287E
:101480004FF00300F4D906E7411E0020B0EB116FC6
:101490001CBF012070474EF21002CEF200025160D4
:1014A0004EF62351CEF20001F0230B70072190601D
:1014B0001160704790F83C20012A4FF0020236D0AC
:1014C00010B580F83D200268D2F804E0D2F808C0D8
:1014D0000C682EF07003234340F2FF74C4F2000442
:1014E000A24253600ADCB2F1804F13D040F20043B5
:1014F000C4F200039A420DD011E000BF42F600434F
:10150000C4F201039A4205D040F60003C4F200037E
:101510009A4204D149682CF080031943916001215B
:10152000002280F83D1080F83C20BDE810401046B5
:1015300070470000002804BF0120704710B590F8E4
:101540003D1031B9002180F83C10044600F070F8DD
:101550002046022180F83D10016840F2FF740B68BC
:10156000C4F2000442F6004CA142C4F2010C15DCA6
:10157000B1F1804F1AD040F20042C4F20002914211
:1015800014D0A14218DCB1F1804F1DD040F20042CE
:10159000C4F20002914217D01AE000BF614505D0A5
:1015A00040F60002C4F200029142EAD1826823F0C0
:1015B00070031343A142E6DD614505D040F6000209
:1015C000C4F20002914203D1026923F44073134331
:1015D000846923F08002D0F804E0C36822436145A7
:1015E0000A60CB62C1F828E002D14269CCF8302011
:1015F00001224A610B69DB0703D00B6923F0010369
:101600000B6180F8462080F83E2080F83F2080F86B
:10161000402080F8412080F8422080F8432080F864
:10162000442080F8452080F83D20002010BD0000B7
:1016300083B0006840F60001C4F20001884227D060
:1016400040F20041C4F20001884211D0B0F1804F55
:101650002BD141F21C00C4F20200016841F00101EB
:101660000160006800F001000290029803B070472A
:1016700041F21C00C4F20200016841F00201016065
:10168000006800F002000190019803B0704700BFAD
:1016900041F21C00C4F20200016841F00401016043
:1016A000006800F004000090009803B0704700004C
:1016B00090F83D1001291CBF01207047022180F8DD
:1016C0003D10006840F2FF71C4F20001884209DC5D
:1016D000B0F1804F12D040F20041C4F200018842C4
:1016E0000CD012E042F60041C4F20101884205D05C
:1016F00040F60001C4F20001884206D1816801F081
:101700000701062904BF00207047016841F001016C
:10171000016000207047000090F83C20012A4FF043
:1017200002026CD080B580F83D20D0F800C04FF6A2
:101730007772DCF8083023EA0202CCF808200B6844
:101740004F2B29DC1F2B45DD202B46D0302B44D0DE
:10175000402B40F0AF80D1F804E0C968DCF82030BD
:10176000DCF8202022F00102CCF82020DCF8182040
:1017700022F0F00242EA011123F00A0242EA0E02CC
:10178000CCF81810CCF82020DCF8081041F0470104
:1017900021F0300128E000BF6F2B33DDB3F5005F8F
:1017A00074D0B3F5805F21D0702B40F08380D1E9F5
:1017B00001E3C968DCF8082043EA0E0322F47F4203
:1017C00043EA01211143CCF80810DCF8081041F07D
:1017D000770109E00BB1102B6CD1DCF8081021F077
:1017E0007001194341F00701CCF8081000220121D3
:1017F00080F83D10002180F83C10BDE88040104684
:10180000704700BF502B21D0602B53D1D1F804E09A
:10181000C968DCF82030DCF8202022F01002CCF877
:101820002020DCF8182022F4704242EA013123F033
:10183000A00242EA0E12CCF81810CCF82020DCF8F6
:10184000081041F0670121F01001CDE7D1F804E064
:10185000C968DCF82030DCF8202022F00102CCF846
:101860002020DCF8182022F0F00242EA011123F0D7
:101870000A0242EA0E02CCF81810CCF82020DCF85C
:10188000081041F0570121F02001ADE7D1E901E353
:10189000C968DCF8082043EA0E0322F47F4243EAD9
:1018A00001211143CCF80810DCF8081041F4804104
:1018B0009AE700BF01229AE780B586B0006840F63B
:1018C0000001C4F2000188424FF00001CDE904118B
:1018D000CDE9021116D0B0F1804F2ED141F218009F
:1018E000C4F20200016841F00401016000680321B4
:1018F00000F004000190019840F60000C4F20100DD
:1019000014E000BF41F21800C4F20200016841F087
:10191000080101600068802100F008000190019832
:1019200040F60000C4F2010000F58060029102213F
:101930000391059102A9FFF7E3F806B080BD00000E
:1019400090F83C30012B04BF022070474FEAB202EE
:10195000032A00F2F1802DE9F043DFE802F003A54D
:101960003B7500BF036842F600461D6A1A6AC4F25E
:10197000010622F001021A621A465C6852F818CF7A
:10198000B3428E68D1F800E025F0020545EA06056D
:101990000CD1CE68D1E9057824F4407425F00C050B
:1019A00026F004063C43354344EA08042CF0730750
:1019B00047EA0E075C609F614F6809695F631D62BB
:1019C0009F6947F008079F619F6927F004079F619F
:1019D000A6E000BF036842F600461D6A1A6AC4F218
:1019E000010622F480721A621A46D3F804C052F833
:1019F0001CEFB3428E680C6825F4007545EA062595
:101A00000FD1CE68D1E90598360240F2FF4725F4A0
:101A10004065BE4335432CF4405748EA090647EA7F
:101A2000061C2EF073072743C3F804C0DF614F681C
:101A30000969DF631D62DF6947F00807DF61DF695D
:101A400027F00407DF616BE0036842F60047D3F834
:101A500020C01A6AC4F2010722F480521A621A46A0
:101A60005C6852F81C5FD1F800E08E68BB4204D17C
:101A70004F6924F4804444EA87142CF4005747EA61
:101A8000063725F4E64646EA0E265C60DE614E68BF
:101A900009691E641F62DF6947F40067DF61DF695F
:101AA00027F48067DF613AE0036842F600461D6A6A
:101AB0001A6AC4F2010622F010021A621A46D3F81A
:101AC00004C052F8184FB3428E68D1F800E025F0F8
:101AD000200545EA06150FD1CE68D1E905986FF0CB
:101AE000400725F0C00507EA061635432CF4406789
:101AF00048EA090647EA860C24F4E64444EA0E273D
:101B0000C3F804C09F614F6809699F631D629F69A4
:101B100047F400679F619F6927F480679F6109020E
:101B20001368194311600021BDE8F043002280F8DA
:101B30003C200846704700BF0121002280F83C206D
:101B400008467047002804BF0120704710B590F880
:101B50003D1031B9002180F83C10044600F070F8C7
:101B60002046022180F83D10016840F2FF740B68A6
:101B7000C4F2000442F6004CA142C4F2010C15DC90
:101B8000B1F1804F1AD040F20042C4F200029142FB
:101B900014D0A14218DCB1F1804F1DD040F20042B8
:101BA000C4F20002914217D01AE000BF614505D08F
:101BB00040F60002C4F200029142EAD1826823F0AA
:101BC00070031343A142E6DD614505D040F60002F3
:101BD000C4F20002914203D1026923F4407313431B
:101BE000846923F08002D0F804E0C3682243614591
:101BF0000A60CB62C1F828E002D14269CCF83020FB
:101C000001224A610B69DB0703D00B6923F0010352
:101C10000B6180F8462080F83E2080F83F2080F855
:101C2000402080F8412080F8422080F8432080F84E
:101C3000442080F8452080F83D20002010BD0000A1
:101C400070470000C1B1042908D0082914BF4122FF
:101C50004022825C012A05D016E000BF3F22825C50
:101C6000012A11D10222082910D0042914BF80F8BA
:101C7000412080F83F200BE090F83E20012A03D15C
:101C8000022280F83E2003E00120704780F84020C7
:101C9000006801F01F010122036A8A4023EA020161
:101CA0000162036A42F64441C4F201011A43A1F100
:101CB0004403984202620FD040F2FF71C4F2000167
:101CC000884213DCB0F1804F1CD040F20041C4F2D6
:101CD0000001884216D01CE00A6842F400420A6003
:101CE00040F2FF71C4F200018842EBDD42F6004190
:101CF000C4F20101884205D040F60001C4F200019F
:101D0000884206D1816801F00701062904BF00203E
:101D10007047016841F00101016000207047000038
:101D2000002804BF0120704710B5044690F8410018
:101D300028B9002084F84000204600F063F82420F1
:101D400084F841002068D4E90212C36823F40053E8
:101D5000C360036923F440531A430261D4E90423A6
:101D60001143C268194341F20C639A431143C160A5
:101D70004169A26921F44071114343F60002C4F2A3
:101D800001029042416103D0FFF756F902E000BF23
:101D9000FFF766F9D4E90023192148439900B0FB05
:101DA000F1F048F21F5CC5F2EB1CA0FB0C314FF6C2
:101DB0009C734909C0F6FF7301FB0300322303EB58
:101DC0000010A0FB0C03F02000EA531000EB011000
:101DD000C3F34311084490601069202120F490401F
:101DE0001061506920F02A005061D06840F4005022
:101DF000D0600020606484F8411084F84210606371
:101E000010BD000070B586B040F60004C4F20104B5
:101E1000006804F54051002688420596CDE9036626
:101E2000029601D006B070BD41F21800C4F2020063
:101E3000016802AD41F480410160016801F4804114
:101E400001910199016841F004010160006829468F
:101E500000F00400019001984FF4007002900220FD
:101E60000390032005902046FEF74AFE4FF4806061
:101E7000CDE90206204629460496FEF741FE06B04B
:101E800070BD000070B586B0002641F21800CDE9A3
:101E90000466CDE90266C4F20200016840F600441F
:101EA00041F0080101600068C4F2010400F008007C
:101EB000019001984FF400600290012003900320EC
:101EC00002AD059020462946FEF71AFE4FF48060C9
:101ED000CDE90206204629460496FEF711FE06B01B
:101EE00070BD0000F0B581B040F60044C4F20104BA
:101EF00041F2A05620464FF400610022CFF6FF7653
:101F0000FEF70CFF022000F0C7FC20464FF40061F2
:101F10000122FEF703FF0A2000F0BEFC20464FF42A
:101F200000610022FEF7FAFE0025CBF680753746E9
:101F300020464FF48061FEF7EBFE28B90137F7D356
:101F4000284601B0F0BD00BFFEF784FD0068002503
:101F50000021CBF68075416220464FF48061FEF788
:101F6000D7FE012802D10136F6D3E9E7FEF772FD6C
:101F70000068416A4EF66020814238BF084601F091
:101F800093FB0021C4F2682101F098FA0021C4F209
:101F9000C831054601F06AFA00281CBF0025C4F2CA
:101FA000C835284601B0F0BDFEE70000FEE700009E
:101FB000B0B540F60005C4F20105044628460421E8
:101FC0000022FEF7ABFE284608210122FEF7A6FEFE
:101FD000284610210022FEF7A1FE284620210122DA
:101FE000FEF79CFE40F29C10C2F20000006848F22E
:101FF0001F520068C5F2EB12C16A6143A1FB0212D5
:10200000510941638163B0BDB0B540F60005C4F22B
:1020100001050446284604210122FEF77FFE2846DA
:1020200008210022FEF77AFE284610210122FEF741
:1020300075FE284620210022FEF770FE40F29C101B
:10204000C2F20000006848F21F520068C5F2EB12AD
:10205000C16A6143A1FB0212510941638163B0BDB2
:1020600010B5044640F29C10C2F200000460204605
:102070000021FFF7E7FD20460421BDE81040FFF7EF
:10208000E1BD0000B0B540F60005C4F2010504460C
:10209000284604210022FEF741FE2846082101229D
:1020A000FEF73CFE284610210122FEF737FE2846A7
:1020B00020210022FEF732FE40F29C10C2F2000006
:1020C000006848F21F520068C5F2EB12C16A614312
:1020D000A1FB0212510941638163B0BDB0B540F666
:1020E0000005C4F201050446284604210122FEF73A
:1020F00015FE284608210022FEF710FE2846102172
:102100000022FEF70BFE284620210122FEF706FEE4
:1021100040F29C10C2F20000006848F21F520068B2
:10212000C5F2EB12C16A6143A1FB0212510941637E
:102130008163B0BD10B540F60000C4F201003C213F
:1021400000220024FEF7EAFD40F29C10C2F20000DB
:10215000006800684463846310BD0000FEE700006F
:10216000704700007047000040F2A012C2F2000267
:1021700004211060FFF766BD20EAE070B428A8BF14
:10218000B4204FF4FA61484341F2C261C0F26C11CD
:10219000A0FB010140F2A010C2F20000006801F5AE
:1021A000FA71006881637047FEF7C4BD7047000094
:1021B00010B540F27004C2F200042060FEF7B4FDD6
:1021C000606010BDFEE7000080B54120FFF786FF8C
:1021D0004FF44D70FEF780FCFFF7ACFF2820BDE800
:1021E0008040FEF779BC000080B54120FFF74AFF30
:1021F0004FF44D70FEF770FCFFF79CFF2820BDE800
:102200008040FEF769BC00002DE9F04F83B05A20F2
:10221000FFF7B2FF3C20FEF75FFCFFF763FE4FF0D5
:102220007E51044601F022F940F20008C4F2C83899
:1022300006462046414601F02EF940F20009C4F25C
:102240007A4907462046494601F025F9002808BF8B
:102250004C46002F08BF4C460A20002E08BF4C46B3
:10226000FEF73AFCFFF73EFE4FF07E51064601F0C6
:10227000FDF807463046414601F00DF90546304667
:10228000214601F008F9002808BF2646002D08BFA6
:1022900026460A20002F08BF2646FEF71DFCFFF742
:1022A00021FE4FF07E51044601F0E0F8054620463D
:1022B000414601F0F0F807462046314601F0EBF8C0
:1022C000002808BF3446002F08BF34460A20002DDE
:1022D00008BF3446FEF700FC2046494601F0B8F836
:1022E00000281CBF0024CBF680742046002101F09A
:1022F000D2F8002840F0018120464FF0834101F0E0
:10230000B5F8B8B9FFF716FF1E20FEF7E5FBFFF79B
:1023100011FF3220FEF7E0FB1E20FFF749FEA02050
:10232000FEF7DAFBFFF706FF2820FEF7D5FB1E209D
:10233000FEF7D2FB0021C4F2E011204601F096F82E
:10234000002840F0DA80FFF7F5FE1420FEF7C4FB0A
:102350000A20FFF711FF4FF4D270FEF7BDFBFFF725
:10236000C1FD4FF07E51064601F080F840F20008B2
:10237000C4F2C83805463046414601F08CF840F2B8
:102380000009C4F27A4907463046494601F083F80D
:10239000002808BF4E46002F08BF4E460A20002DD9
:1023A00008BF4E46FEF798FBFFF79CFD4FF07E51AD
:1023B000054601F05BF807462846414601F06BF8F8
:1023C00004462846314601F066F8002808BF354625
:1023D000002C08BF35460A20002F08BF3546FEF7FF
:1023E0007BFB2846494601F033F800284FF0AA004D
:1023F0001CBF0025CBF68075FFF7BEFE4FF4D270F0
:10240000FEF76AFBFFF76EFD4FF07E51074601F0C5
:102410002DF804463846414601F03DF80646384658
:10242000494601F038F8002808BF4F46002E08BF83
:102430004F460A20002C08BF4F46FEF74DFBFFF722
:1024400051FD4FF07E51064601F010F882463046AD
:10245000414601F020F804463046394601F01BF8A9
:10246000002808BF3E46002C08BF3E460A20BAF1AD
:10247000000F08BF3E46FEF72FFB3046494600F0EE
:10248000E7FF00284FF05A001CBF0026CBF68076ED
:10249000FFF772FE1E20FEF71FFB0021C4F2A01101
:1024A000284600F0F1FF0446002818BF01240BD194
:1024B0000021C4F2A011304600F0D8FF20B941201D
:1024C000FFF70CFE10E000BF0021C4F2A01130465F
:1024D00000F0CCFF002818BF01202040012840F068
:1024E00073814120FFF7CEFD4FF44D70FEF7F4FAF3
:1024F000FFF720FE2820FEF7EFFA40F60047C4F26F
:102500000107A7F5806528468021FEF701FC80467B
:102510000320FEF7E1FA28468021FEF7F9FB824608
:102520000320FEF7D9FA28468021FEF7F1FB814609
:102530000320FEF7D1FA38460121FEF7E9FBB0FA95
:1025400080F046090320FEF7C7FA38460121FEF75E
:10255000DFFB00284FF0030008BF0136FEF7BCFA8E
:1025600038460121FEF7D4FB00284FF0030008BFD6
:102570000136FEF7B1FA38460221FEF7C9FBB0FA80
:1025800080F044090320FEF7A7FA38460221FEF73F
:10259000BFFB00284FF0030008BF0134FEF79CFA90
:1025A00038460221FEF7B4FB00284FF0030008BFB5
:1025B0000134FEF791FA022E18D2B8FA88F04009D9
:1025C000BAF1000F08BF0130B9F1000F08BF0130A8
:1025D00002282DD3012C2BD84120FFF753FD642076
:1025E00003B0BDE8F04FFEF777BA00BF0095FEF7E5
:1025F0009BFB0446FEF798FB02905A20FFF7BCFDB8
:102600003C20FEF769FAFEF78FFB0546001B41F2FE
:102610007071884201941BD9FFF78CFD009E3046F3
:102620004021002203B0BDE8F04FFEF777BB00BFAA
:10263000012800F28380022CC0F080804120FFF747
:102640004DFD642003B0BDE8F04FFEF745BA00BF72
:1026500040F2000940F2000BC4F2C839C4F27A4BD0
:1026600038460121FEF754FB0028D5D1BA46FFF7C2
:1026700039FC4FF07E51044600F0F8FE0646204635
:10268000494600F008FF07462046594600F003FF80
:10269000002808BF5C46002F08BF5C460A20002EB9
:1026A00008BF5C46FEF718FAFFF71CFC4FF07E519E
:1026B000804600F0DBFE06464046494600F0EBFE51
:1026C00007464046214600F0E6FE002808BFA04627
:1026D000002F08BFA0460A20002E08BFA046FEF724
:1026E000FBF94046594600F0B3FE00281CBF40F2FB
:1026F0000008CBF680784046002100F0CCFE28B9D7
:1027000040464FF0834100F0B1FE08B3029840F21A
:10271000DD51281A884271D21920FFF775FC1E205E
:10272000FEF7DAF9FEF700FB0546019841F27171F8
:10273000281A8842574693D36EE700BF2D20FFF733
:1027400063FC3C2003B0BDE8F04FFEF7C5B900BF05
:10275000FFF7F0FC5020FEF7BFF9FEF7E5FA04465C
:10276000FEF7E2FA001B8008009E4A280FD800BF3F
:1027700050460121FEF7CCFA002879D10A20FEF755
:10278000ABF9FEF7D1FA001BB0F5967FF0D3FEF758
:10279000CBFA0446304640210122FEF7BFFAFEF78D
:1027A000C3FA001B40F6B73188423FF638AF40F617
:1027B000B83500BF1420FEF78FF9FEF7B5FA001BFD
:1027C000A842F7D32BE700BF0021C4F2A01128468E
:1027D00000F05AFE00284FD10021C4F2A01130466B
:1027E00000F052FE002847D12846314600F053FE43
:1027F00000284DD0FFF7F8FC7FE600BFFFF79AFCFA
:102800005020FEF769F9FEF78FFA0446FEF78CFABE
:10281000001B8008009E4A280ED800BF50460121A8
:10282000FEF776FA20BB0A20FEF756F9FEF77CFA8F
:10283000001BB0F5967FF1D3FEF776FA04463046DA
:1028400040210122FEF76AFAFEF76EFA001B40F6FD
:10285000B73188423FF6E3AE40F6B8351420FEF7B4
:102860003BF9FEF761FA001BA842F7D3D7E600BF99
:1028700003B0BDE8F08F00BF1E20FFF799FBFA20E0
:10288000FEF72AF9FFF756FC1E20FEF725F916E69B
:10289000FFF79AFC31E6000040F27801C2F2000135
:1028A000096881B1096800224A6206E04A6A8242E8
:1028B00028BF70474A6A824205D24A6A824202D2DF
:1028C0004A6A8242F2D3704792B0FEF741FA00247E
:1028D0000120CDE90B44CDE9094406900A904FF45C
:1028E000E0104FF4803102250F9006A8CDE90714BF
:1028F000CDE90D51FEF7C8FB20B1EFF3108072B6A1
:10290000FEE700BF0F20CDE900054FF48060CDE960
:102910000304684602210294FEF7B0FA20B1EFF3F7
:10292000108072B6FEE700BF002741F21800CDE923
:102930000877CDE90677C4F20200016840F6000886
:1029400041F0200101600168C4F2010801F020019A
:10295000009100990168002241F0040101600168C2
:102960007C2401F0040100910099016841F0080104
:10297000016000687C2100F008000090009840464B
:10298000FEF7CCF908F5806528464FF40061002277
:102990004FF40069FEF7C2F906AE06944FF0010A43
:1029A000022440463146CDE907A70994FEF7A8F86E
:1029B0008020CDE90607404631460897FEF7A0F88B
:1029C00040F20340CDE90607284631460897FEF756
:1029D00097F828463146CDE9069ACDE90874FEF706
:1029E0008FF840F27C00C2F200004FF0804140F2CC
:1029F000E7330397CDE90177CDE91077CDE90B7780
:102A0000CDE90977472280E88600C0E9033787616E
:102A1000FEF790FD20B1EFF3108072B6FEE700BF25
:102A20004FF48050009040F27C00C2F200006946F2
:102A3000FEF772FE20B1EFF3108072B6FEE700BF22
:102A400040F27C00C2F20000FFF77CF820B1EFF307
:102A5000108072B6FEE700BF40F27C00C2F20000B8
:102A600010A9FEF727FD28B1EFF3108072B600BF62
:102A7000FEE700BF602006900020CDE907000A9025
:102A800040F27C00C2F2000006A90022FEF758FFC7
:102A900020B1EFF3108072B6FEE700BF40F27C0079
:102AA000C2F2000006A90422FEF74AFF20B1EFF3AC
:102AB000108072B6FEE700BF40F27C00C2F2000058
:102AC000FEF7FAFE40F2C4000021A8F58232C2F2FD
:102AD000000047234FF6FF770991CDE90711CDE9B3
:102AE0000011C0E90023C0E9021701618161FEF70E
:102AF00021FD28B1EFF3108072B600BFFEE700BFE2
:102B00004FF48050069040F2C400C2F2000006A9C3
:102B1000FEF702FE20B1EFF3108072B6FEE700BFB1
:102B200040F2C400C2F200006946FEF7C3FC18B1CF
:102B3000EFF3108072B6FEE740F20C100021A8F50A
:102B40008032C2F20000472344F61F670391CDE9AB
:102B50000111CDE91011CDE90B11CDE90911C0E941
:102B60000023C0E9021701618161FEF7E3FC18B19F
:102B7000EFF3108072B6FEE74FF48050009040F201
:102B80000C10C2F200006946FEF7C6FD20B1EFF35B
:102B9000108072B6FEE700BF40F20C10C2F20000D7
:102BA000FEF7D0FF20B1EFF3108072B6FEE700BF52
:102BB00040F20C10C2F2000010A9FEF77BFC18B125
:102BC000EFF3108072B6FEE76020069040F20C1022
:102BD0000025C2F2000006A90422CDE907550A9596
:102BE000FEF7AEFE20B1EFF3108072B6FEE700BF35
:102BF00040F20C10C2F20000FEF75EFE40F25410EC
:102C000008F54051C2F200000C234FF4E13280E895
:102C10002600C0E90355C0E90535C561FFF780F816
:102C200020B1EFF3108072B6FEE700BF40F2C4009F
:102C3000C2F20000FDF714FF40F27C00C2F2000077
:102C4000FFF70EFA40F20C10C2F20000FFF78CFA08
:102C5000FFF718F9FDF70CFF40F25410C2F2000024
:102C6000FFF7A6FAFFF7D0FAFCE75FEA400C08BFCF
:102C700091F0000F4FEA8C234FEAC12243EA5151F1
:102C80004FEA1C5018BF00F5F0404FEA300018BF63
:102C900041F000415FEA6C5C00F02980BCF1FF3F2D
:102CA00008BF40F080407047130C06BF12044FF07D
:102CB000100C4FF0000C130E04BF12020CF1080CA4
:102CC000130F04BF12010CF1040C930F04BF920008
:102CD0000CF1020CD30F04BF52000CF1010C114691
:102CE0004FF00002A0F11F00A0EB0C00704711F0A4
:102CF000004F08BF704731F000413FF4D5AF0B0CD7
:102D000006BF09044FF0100C4FF0000C0B0E04BF6F
:102D100009020CF1080C0B0F04BF09010CF1040CA3
:102D20008B0F04BF89000CF1020CCB0F04BF4900CC
:102D30000CF1010CCCF1200322FA03F341EA030168
:102D400002FA0CF2A0EB0C0000F101007047000049
:102D500023F07F4720F07F4C80EA030000F0004022
:102D6000ACEB070303F57C5303F1FF032DE9804926
:102D700009B44FEA144324EA03484FEA154B25EA05
:102D80000B4E0FF2042606EB13273E7803FB066773
:102D9000C7F5000707FB06F64FEAD64606F102061E
:102DA0004FEA543707FB066CCCF1005C4FEA1C4736
:102DB0002CEA074C0CFB06F507FB06F404EB154662
:102DC0004FEA961649085FEA320234BF00204FF0FE
:102DD00000404FEAD13706FB07FC4FEA1C4C0CFBC6
:102DE0000BF7D21B03FB0CF761EB07010CFB0EF793
:102DF000B0EB074072EB17420CFB08F734BFA2EBB5
:102E00000742B2EB074261EB17414FEA0C444FEA2D
:102E1000910706FB07FC4FEA1C4C0CFB0BF7B0EBD1
:102E2000C74072EB573203FB0CF734BFA2EBC7422B
:102E3000B2EBC74261EB57310CFB0EF7B0EBC700AA
:102E400072EB57720CFB08F734BFA2EBC702B2EB70
:102E5000C70261EB57714FEA816141EA92114FEA73
:102E6000826242EA90124FEA806004EBCC04039F36
:102E70004FEAD13706FB07FC4FEA1C4C0CFB0BF763
:102E8000D21B03FB0CF761EB07010CFB0EF7B0EB59
:102E9000074072EB17420CFB08F734BFA2EB074266
:102EA000B2EB074261EB17414FEA8C5504EB9C24CF
:102EB0004FEA910706FB07FC4FEA1C4C0CFB0BF793
:102EC000B0EBC74072EB573203FB0CF734BFA2EBF9
:102ED000C742B2EBC74261EB57310CFB0EF7B0EBC8
:102EE000C70072EB57720CFB08F734BFA2EBC702A6
:102EF000B2EBC70261EB57714FEA816141EA92116F
:102F00004FEA826242EA90124FEA806015EB4C254C
:102F100044F100044FEAD13706FB07FC4FEA1C4C92
:102F20000CFB0BF7D21B03FB0CF761EB07010CFB4F
:102F30000EF7B0EB074072EB17420CFB08F734BFFB
:102F4000A2EB0742B2EB074261EB17414FEA813136
:102F500041EA92414FEA823242EA90424FEA80309F
:102F60004FEA0C7615EB1C1544F1000448EA0343C4
:102F70004EEA0B484FF0000EB2EB080C71EB030762
:102F800024BF624639464EEB0E0E4FF0000B001880
:102F9000524149414BEB0B0BB2EB080C71EB0307B1
:102FA0007BF1000B24BF624639464EEB0E0E4FF00C
:102FB000000B0018524149414BEB0B0BB2EB080CD4
:102FC00071EB03077BF1000B24BF624639464EEBE1
:102FD0000E0E51EA020718BF46F0010616EB0E76F8
:102FE00055F1000254F1000103D5BDE88901BDE8A7
:102FF0000088BDE88901BDE80048B619524141EB9F
:103000000101A3F10103704780807F7E7D7C7B7A84
:103010007978777676757473727171706F6E6E6D84
:103020006C6C6B6A6A69686867666665646463632A
:1030300062616160605F5F5E5E5D5D5C5C5B5B5AB0
:103040005A5959585857575656555555545453531D
:1030500052525251515050504F4F4F4E4E4D4D4D78
:103060004C4C4C4B4B4B4A4A4A49494948484847C3
:103070004747474646464545454444444443434301
:1030800043424242424141419C46002B30D47700AA
:103090002BD04FEA37071CB503B44FF010004FF0A8
:1030A0001001BAF1000F06D0BCF1000FDCBF40F0F8
:1030B000080040F008014FF000000FBCBDE81040D0
:1030C0000BF1010BBBF1010F08BF5FEA170722BF2D
:1030D00012F1010211F101014FF0004143F100032F
:1030E00000F0004043EA00007047F9D35708D0E7EA
:1030F00046EA06464FEA164613F1400F1FDD13F16C
:10310000200FDFBF16430A46002120335B42BED0AA
:10311000C3F1200746EA06464FEA164602FA07F7C9
:1031200046EA070622FA03F2C3F1200701FA07F77D
:1031300042EA070221FA03F14FF00003A7E746EA4B
:10314000020646EA06464FEA164646EA0106BCBFB4
:1031500046EA0646360C4FF000034FF000024FF0EF
:10316000000194E72DE9804C70B49A46934691E8AB
:10317000380007C831EA400C48BF34EA430C03D595
:10318000FFF7E6FDFFF780FFF0BCBDE8008C2DE9FE
:10319000804C70B49A46934691E8380007C810F006
:1031A000804F08BF13F0804F03D100F005F8FFF700
:1031B0006BFFF0BCBDE8008C20F07F4723F07F4C14
:1031C00080EA030000F0004007EB0C03A3F57C53FA
:1031D000A3F1FE0392F0000F00F0B38095F0000F12
:1031E00000F077802DE901494FEA114021EA0048BB
:1031F0004FEA144624EA064700FB06FC08FB06F6E5
:1032000007FB08F818EB06484CEB164C00FB07F7D9
:1032100018EB07484CEB17404FEA124B22EA0B4ED3
:103220004FEA154625EA06470BFB06FC0EFB06F6A1
:1032300007FB0EFE1EEB064E4CEB164C0BFB07F786
:103240001EEB074E4CEB174B18EB0B0840F1000040
:1032500018EB0E0B58EB000840F100008F1A4FF0EE
:1032600000014FF000063CBFC943661B14BFB5EB1D
:10327000040C00213CBFC943F61B4FEA174427EA60
:1032800004454FEA1C472CEA074C04FB076205FB88
:1032900007F70CFB05F616EB074642EB174204FB5B
:1032A0000CFC16EB0C4642EB1C421BEB060658EBE3
:1032B000020241414EEA8E0E46EA9E0601D5BDE865
:1032C0000189B619524141EB0101A3F10103BDE8A7
:1032D00001894FEA144524EA05464FEA114721EADD
:1032E000074C05FB07F406FB07F70CFB06F111EB97
:1032F000074144EB174405FB0CFC11EB0C4144EB7C
:103300001C444FEA124722EA074C05FB07F206FB72
:1033100007F70CFB06F616EB074642EB174205FBD8
:103320000CFC16EB0C4642EB1C456A1854F10001EC
:1033300048BF7047B619524141EB0101A3F10103A7
:10334000704795F0000F37D04FEA114221EA02464C
:103350004FEA144724EA074C02FB07F106FB07F784
:103360000CFB06F414EB074441EB174102FB0CFC89
:1033700014EB0C4441EB1C414FEA154725EA074C7E
:1033800002FB07F506FB07F70CFB06F616EB0746F4
:1033900045EB174502FB0CFC16EB0C4645EB1C42BB
:1033A000121951F1000148BF7047B619524141EB63
:1033B0000101A3F1010370474FEA144524EA0546D1
:1033C0004FEA114721EA074C05FB07F106FB07F717
:1033D0000CFB06F212EB074241EB174105FB0CFC1C
:1033E00012EB0C4251EB1C414FF0000648BF7047F6
:1033F000921841EB0101A3F101037047490050EA23
:10340000C12018BF04204A0D18BF40F0010040F24F
:10341000FF72B2EB515F08BF40F00200012808BF05
:103420000520704710B500290AD00878002807D079
:1034300005487844FDF7C2FA002801D0002010BDED
:103440000248784410BD0000EA040000E2040000D5
:1034500010B500F0F5F80CBF0120002010BD10B52C
:1034600000F0EEF814BF0120002010BD10B500F0F0
:103470002FF98CBF0120002010BD10B500F028F9F5
:103480002CBF0120002010BD10B500F055F994BFED
:103490000120002010BD10B500F04EF934BF01200E
:1034A000002010BD401058BFC0F14040491058BF27
:1034B000C1F140418142EFF3008070474FF47F0C2F
:1034C0001CEAD0121EBF1CEAD11392EA0C0F93EA39
:1034D0000C0F00F0858090EA010F48BF42F4807223
:1034E00040F4000C41F400002CF07F4120F07F40BC
:1034F00000B5A2EB030281420FF2081CACEB504E68
:103500009EF800E0C0F100004FEA4E0E00FB0EFCFA
:1035100038BF49004FEA2C1C0CFB0EF34FEACE1EBD
:103520000EEB635E4FEA112C0EFB0CFC4FEAC1213F
:103530004FEA1C5300FB031102F5FA024FEA112C6B
:103540000EFB0CFC4FEA01314FEADC4C00FB0C1186
:1035500042EB2242C14228BF09184CEB03335DF80D
:1035600004EB10EB410143EBC250B2F57C0F38BFC6
:10357000704729D512F0F00F1CBF00F1C04000F0D9
:1035800000407047008182838485868788898B8C80
:103590008D8E8F919293959697999A9C9D9FA0A2BC
:1035A000A3A5A7A8AAACAEB0B2B3B5B7B9BCBEC00C
:1035B000C2C5C7C9CCCED1D4D7D9DCDFE2E6E9ECAD
:1035C000F0F3F7FAFE0000004FEA400C0CF1807CAB
:1035D000BCF17E4F28BF7047B0F1C04000F026B963
:1035E0000CEAD11390EA010F48BF42F480726245A1
:1035F00038BF634507D213F47F0F16D080EA01006D
:1036000000F00040704710B500F0CAF8097EFC3E9B
:1036100000F005B880EA010000F00040704780EA41
:10362000010000F0004000F001B912F47F0F04BF68
:103630000248704780EA010000F0F8B80000C07F3F
:1036400050EA010C00F113801CF5000F58BFBCF5C7
:10365000000F01D48842704707D710F5000F58BFFC
:1036600011F5000F15D488427047894270471CF548
:10367000000F04D5BCF5000FF7D5814270474FF01D
:10368000807C1CEB400F38BF1CEB410F01D2814204
:10369000704710B500F084F8922449004FF00050B4
:1036A0004FF08051FFF7FEBEB0FA80F310FA03F23C
:1036B000C3F19D030AD0D90501EB1220530638BF90
:1036C000704700F1010008BF20F0010070470000C2
:1036D00050EA010C00F113801CF5000F58BFBCF537
:1036E000000F01D48842704707D710F5000F58BF6C
:1036F00011F5000F15D488427047894270471CF5B8
:10370000000F04D5BCF5000FF7D5814270474FF08C
:10371000807C1CEB400F38BF1CEB410F01D2814273
:10372000704710B500F03CF8922449004FF08050EB
:103730004FF00051FFF7B6BE50EA010C00F11380C4
:103740001CF5000F58BFBCF5000F01D4884270472C
:1037500007D710F5000F58BF11F5000F15D4884298
:103760007047894270471CF5000F04D5BCF5000F67
:10377000F7D5814270474FF0807C1CEB400F38BF7B
:103780001CEB410F01D28142704710B500F008F8E0
:10379000922449004FF000504FF08051FFF782BE55
:1037A0000EF1020E2EF0030E5EF8044B244204D4F8
:1037B0004FEA4102B2F17F4F11D84FEA4003B3F113
:1037C0007F4F0CD80ED14FEAD07C0CEB4C0C0CF197
:1037D000020CB2F17F4F08BF4CEBD17C04E04FF0FC
:1037E000080C01E04FEAD17C0CEB4C0324FA03F403
:1037F00004F00704B4F1040C06D20EEB840CBDE80F
:1038000010404CF0010C6047DFE80CF007080202A2
:103810004FF00040A0F5800010BD0846420018BFE0
:10382000D2F1807288BF00F0004010BDFF2141EA54
:10383000D050C0057047FCF75DBE0000024000009C
:10384000000000A00000000005400000000000C8CB
:10385000000000000C4000000000409C0000000040
:10386000194000000020BCBE0000000034400000F1
:10387000BFC91B8E00000004B5400000504BCFD0E4
:103880006607E2CF010000006C4100003E8251AAB1
:10389000DFEEA73401000000D9420000DCB5A0E251
:1038A0003A301F97FFFFFFFFB4450000FD25A0C879
:1038B000E9A3C14FFFFFFFFFFF3F000000000080B2
:1038C00000000000FF3F000000000080000000003A
:1038D00000000000000000000102030406070809C0
:1038E00000000000010203040102020304050607B0
:1038F00008090A0B0C0D0E0F1010000038390008D3
:1039000000000020100000005001000848390008A5
:103910001000002098070000700100081C00000043
:1039200043000000F8FFFFFF0C0000000E00000045
:103930000F0000002E000000010000001000000039
:0839400000127A0000000000F3
:04000005080000ED02
:00000001FF
