:020000040800F2
:1000000058070020B5010008CD1700081916000890
:100010001D160008710200082118000800000000E9
:10002000000000000000000000000000D5170008DC
:100030007502000800000000D11700081918000818
:10004000CF010008CF010008CF010008CF01000850
:10005000CF010008CF010008CF010008CF01000840
:10006000CF010008CF010008CF010008CF01000830
:10007000CF010008CF010008CF010008CF01000820
:10008000CF010008CF010008CF010008CF01000810
:10009000CF010008CF010008CF010008CF01000800
:1000A000CF010008CF010008CF010008CF010008F0
:1000B000CF010008CF010008CF010008CF010008E0
:1000C000CF010008CF010008CF010008CF010008D0
:1000D000CF010008CF010008CF010008CF010008C0
:1000E000CF010008CF010008CF01000800F002F89E
:1000F00000F050F814A696E8000CB244B344DA4578
:1001000001D100F047F8BAE80F000FA696E83000DA
:10011000A5EB040504EB0607AAEB0704A7F101070A
:100120004FEA15154FEA3414A4F10104AC4201D38F
:1001300000F030F813F0010F18BFFB1A43F0010371
:1001400000F001F8DBE718474825000068250000AB
:10015000103A24BF78C878C1FAD8520724BF30C8F3
:1001600030C144BF04680C60704700007047000055
:100170000023002400250026103A28BF78C1FBD8B0
:10018000520728BF30C148BF0B6070471FB51FBD65
:1001900010B510BD00F031F81146FFF7F7FF01F080
:1001A000C1FE00F04FF803B4FFF7F2FF03BC00F00C
:1001B00057F800000948804709480047FEE7FEE776
:1001C000FEE7FEE7FEE7FEE7FEE7FEE7FEE7FEE707
:1001D00004480549054A064B704700001D180008F1
:1001E000ED000008580100205807002058030020A7
:1001F00058030020704770477047754600F02CF890
:10020000AE4605006946534620F00700854618B003
:1002100020B5FFF7DDFFBDE820404FF000064FF0AE
:1002200000074FF000084FF0000BAC46ACE8C009E7
:10023000ACE8C009ACE8C009ACE8C00921F007018E
:100240008D46704710B50446AFF300802046BDE8E8
:100250001040FFF7A8BF00000048704710000020C2
:1002600001491820ABBEFEE72600020070470000DF
:10027000FEE700007047000040F27000C2F200008C
:100280000068704740F27001C2F20001086000F09F
:10029000F9BD000070B586B0002641F21800CDE926
:1002A0000466CDE90266C4F20200016840F600046B
:1002B00041F0040101600168C4F2010401F004018D
:1002C00001910199016802AD41F0080101600068E7
:1002D000294600F0080001900198802002902046F5
:1002E00000F020F80320CDE9020604F580602946DD
:1002F000049600F017F806B070BD0000B0B50446D3
:1003000000F024F9054640F20000C2F20000007837
:10031000611C18BF044400BF00F018F9401BA04244
:10032000FAD3B0BD2DE9F04F82B00E68002E00F078
:10033000FD8041F20042C4F20102042340F2004E6B
:10034000904208BF03234FF6FF7CC4F2010E0093D6
:1003500000240123C1F2100C4FF0000A4FF00009F5
:100360004BE000BF41F20002C4F20102009F904244
:1003700008BF022704F00C030F229A402BEA020266
:1003800007FA03F34FEA9A051A4346F825204E6808
:1003900040F20C45F202DEF8082054BF22EA0802BF
:1003A00042EA0802C4F20105CEF808202A68B30226
:1003B00054BF22EA080242EA08022A60B303DEF8C8
:1003C000042054BF22EA080242EA0802F303CEF8EE
:1003D0000420DEF800204FF0010354BF22EA080297
:1003E00042EA0802CEF800200E680AF1010A36FA45
:1003F0000AF204F1040400F0998003FA0AFB16EAF9
:100400000B08F1D04E68664512DC122E56D8DFE894
:1004100006F0350B4D4955555555555555555555BE
:1004200055555545510000BFD1F80C9046E000BF2E
:100430004FF6FF72C1F2210296420FDC0022C1F298
:10044000110296421AD00022C1F21202964215D031
:100450000022C1F22102964210D02FE00022C1F208
:10046000220296420AD00022C1F23102964205D001
:100470000022C1F23202964220D100BF8A684AB1FE
:10048000012A14BFC0F814B0C0F810B04FF008092A
:1004900014E000BF4FF0040910E000BFCA6802F189
:1004A00004090BE04FF0000908E000BFCA6802F140
:1004B000080903E0CA6802F10C0900BF024626469B
:1004C000B8F5807F24BF0432203E17680F25B54061
:1004D00027EA050509FA06F635431560CA79D206FA
:1004E0007FF582AF41F21803C4F202031A68AEF539
:1004F0007E7642F001021A601A6802F0010201924F
:10050000019A2AF0030256F802B040F60002C4F243
:100510000102904208D040F60042C4F2010290422B
:100520007FF420AF012725E7002723E702B0BDE8CD
:10053000F08F00008068084018BF0120704700005D
:10054000002A08BF090401617047000040F25410FE
:10055000C2F200000068704740F2000040F25411FF
:10056000C2F20000C2F2000100780A68104408607C
:100570007047000080B542F20000C4F2020001683A
:1005800041F010010160032000F07AF80F2000F024
:1005900005F800F027F8002080BD000070B540F29B
:1005A0000006C2F2000640F208013278C2F20001F1
:1005B0004FF47A730968B3FBF2F20446B1FBF2F12F
:1005C000084600F04BFB0F2C4FF0010508D838B956
:1005D0004FF0FF3021460022002500F025F874601E
:1005E000284670BD82B041F21800C4F202000168D2
:1005F000022241F001010160016801F00101019155
:100600000199416841F080514160406800F080509C
:10061000009000980420C4F20100016862F31A619E
:10062000016002B07047000010B54EF60C5CCEF2CF
:10063000000CDCF80030C3F3022E8EF00704042C0B
:1006400028BF0424BEF103034FF0FF3E0EFA04F46A
:1006500038BF0023A14399400EFA03F39A43114394
:1006600000F00F0200F160430901043A03F564430E
:100670006244002848BF02F10C03197010BD00004D
:100680004EF60C51CEF200010A684FF6FF031A40F5
:1006900060F30A2242F0806040F0FD70086070470D
:1006A000002804BF012070472DE9F04381B042F2D9
:1006B0000008C4F202080446D8F800000D4600F015
:1006C000070081420CD9D8F8000020F00700284329
:1006D000C8F80000D8F8000000F00700A8426CD16C
:1006E000206841F204098107C4F2020917D54107C5
:1006F00005D5D9F8001041F4E061C9F800100107F0
:1007000005D5D9F8001041F46051C9F80010D9F8A6
:100710000010A26821F0F0011143C9F80010C007D1
:1007200042D1D8F8000000F0070085420CD2D8F87A
:10073000000020F007002843C8F80000D8F80000A7
:1007400000F00700A84238D12068410707D5D9F842
:100750000010E26821F4E0611143C9F800100007BD
:1007600008D5D9F80000216920F4605040EAC100A2
:10077000C9F80000D9F8002002F00C00082841F266
:100780000020C0F27A004DD142F28063C2F383416F
:10079000C0F60003595CD20338D440F60010C0F212
:1007A0003D0048433EE000BF606859F8041C022841
:1007B00008D0012826D1890306D4012001B0BDE864
:1007C000F08300BF8901F8D5D9F8001021F00301AA
:1007D0000843C9F80000FFF7B9FE064641F2883722
:1007E000D9F80000616800F00C00B0EB810F98D0E0
:1007F000FFF7ACFE801BB842F2D9032001B0BDE880
:10080000F08300BF8907D8D5DEE700BFD9F8002004
:1008100042F27E63C2F34042C0F600039A5C484352
:10082000B0FBF2F0D9F8001042F26E62C1F303118E
:10083000C0F60002515C40F2080220FA01F140F2D9
:100840000400C2F200000068C2F200021160FFF76B
:10085000A5FE002001B0BDE8F0830000002804BF21
:10086000012070472DE9F04182B00446007841F242
:100870000006C007C4F202060CD0706800F00C003D
:10088000042840F081803068800303D56068002828
:1008900000F04681207880071BD5706810F00C0F9F
:1008A00009D0706800F00C00082840F0878070685C
:1008B000C00300F183803068800703D520690128D8
:1008C00040F02E813068616920F0F80040EAC100F4
:1008D00030602078000713D4207840072CD4E569D5
:1008E000002D00F01881706800F00C00082840F01E
:1008F000A780012D40F00481012002B0BDE8F08105
:10090000A069002800F084800020C4F24220012168
:10091000C0F88014FFF71AFE054600BF706A800712
:1009200000F1B280FFF712FE401B0228F6D9032027
:1009300002B0BDE8F08100BFF0695FEAC00808D4EA
:10094000F06940F08050F061F06900F08050009054
:10095000009847F20007C4F200073868C00549D480
:10096000386840F480703860FFF7F0FD054600BF3E
:100970003868C0053ED4FFF7E9FD401B6428F7D96D
:10098000032002B0BDE8F081706800F00C00082878
:1009900003D17068C0033FF576AF61683068002905
:1009A00000F00C81B1F5A02F00F00081B1F5803F7F
:1009B00040F01A8140F480301CE100BF206900281B
:1009C00040F20000C4F2422000F088800121016062
:1009D000FFF7BCFD054600BF306880073FF572AFEA
:1009E000FFF7B4FD401B0228F6D9032002B0BDE892
:1009F000F08100BFE168306A002900F09D80052980
:100A000000F09280012940F0AF8040F00100B1E099
:100A10000020C4F242200021C0F88014FFF796FDA8
:100A2000054600BF706A80077FF556AFFFF78EFD61
:100A3000401B0228F6D9032002B0BDE8F08100BFB8
:100A40000027C4F2422700203866FFF77FFD022D01
:100A500005460DD13068800140F1DE80FFF776FD5C
:100A6000401B02284FF00300F4D902B0BDE8F0812A
:100A7000306880014FD5FFF769FD401B02284FF019
:100A80000300F5D9F1E700BF40F20800C2F2000010
:100A9000006844F6D351C1F26201A0FB0101480A8B
:100AA000019000BF00BF0198411E002801913FF452
:100AB00013AF00BF0198411E002801913FF40CAF15
:100AC00000BF0198411E002801913FF405AF00BF0F
:100AD0000198411E00280191E4D1FDE6002101604A
:100AE000FFF734FD054600BF306880077FF5F1AEA3
:100AF000FFF72CFD401B02284FF00300F4D9B4E7A8
:100B00007068216A00F480328A4209D1616A00F477
:100B10007010884204D1002002B0BDE8F08100BF0F
:100B2000012002B0BDE8F08140F004003062306A7C
:100B300040F001001EE000BF20F001003062306A8A
:100B400020F004003062FFF701FD054641F28837CE
:100B5000306A800720D5FFF7F9FC401BB8424FF000
:100B60000300F5D981E700BF20F001003062306A50
:100B700020F004003062FFF7E9FC054641F28837B7
:100B8000306A800708D4FFF7E1FC401BB842F7D970
:100B9000032002B0BDE8F081B8F1000F3FF59FAE31
:100BA000F06920F08050F06199E600BF40F48020A9
:100BB0003060306840F480301CE000BF20F48030AA
:100BC0003060306820F480203060FFF7BFFC0546BD
:100BD000306880037FF55EAEFFF7B8FC401B6428E9
:100BE0004FF00300F4D940E720F4803030603068E3
:100BF00020F480203060FFF7A9FC054630688003B0
:100C00003FF548AEFFF7A2FC401B6428F6D903204D
:100C100002B0BDE8F08100BF206AB0F5803F05D189
:100C20007168A26821F40031114371607168626AD1
:100C300021F4741111430843706001203866FFF7F6
:100C400085FC0446306880013FF565AFFFF77EFC08
:100C5000001B02284FF00300F4D906E7411E0020D4
:100C6000B0EB116F1CBF012070474EF21002CEF2A4
:100C7000000251604EF62351CEF20001F0230B70BA
:100C8000072190601160704790F83C20012A4FF0D6
:100C9000020236D010B580F83D200268D2F804E098
:100CA000D2F808C00C682EF07003234340F2FF74A2
:100CB000C4F20004A24253600ADCB2F1804F13D0A8
:100CC00040F20043C4F200039A420DD011E000BF8D
:100CD00042F60043C4F201039A4205D040F60003F5
:100CE000C4F200039A4204D149682CF080031943EE
:100CF00091600121002280F83D1080F83C20BDE881
:100D00001040104670470000002804BF01207047C3
:100D100010B590F83D1031B9002180F83C10044620
:100D200000F070F82046022180F83D10016840F282
:100D3000FF740B68C4F2000442F6004CA142C4F2F6
:100D4000010C15DCB1F1804F1AD040F20042C4F220
:100D50000002914214D0A14218DCB1F1804F1DD0A5
:100D600040F20042C4F20002914217D01AE000BFE4
:100D7000614505D040F60002C4F200029142EAD17A
:100D8000826823F070031343A142E6DD614505D07C
:100D900040F60002C4F20002914203D1026923F43A
:100DA00040731343846923F08002D0F804E0C368E1
:100DB000224361450A60CB62C1F828E002D1426952
:100DC000CCF8302001224A610B69DB0703D00B69A4
:100DD00023F001030B6180F8462080F83E2080F864
:100DE0003F2080F8402080F8412080F8422080F8A1
:100DF000432080F8442080F8452080F83D200020E2
:100E000010BD000083B0006840F60001C4F200018C
:100E1000884227D040F20041C4F20001884211D03C
:100E2000B0F1804F2BD141F21C00C4F202000168E6
:100E300041F001010160006800F001000290029899
:100E400003B0704741F21C00C4F20200016841F097
:100E500002010160006800F002000190019803B0F7
:100E6000704700BF41F21C00C4F20200016841F06B
:100E700004010160006800F004000090009803B0D5
:100E80007047000090F83D1001291CBF01207047F9
:100E9000022180F83D10006840F2FF71C4F20001A9
:100EA000884209DCB0F1804F12D040F20041C4F218
:100EB000000188420CD012E042F60041C4F2010168
:100EC000884205D040F60001C4F20001884206D1F4
:100ED000816801F00701062904BF002070470168FE
:100EE00041F00101016000207047000090F83C20B3
:100EF000012A4FF002026CD080B580F83D20D0F876
:100F000000C04FF67772DCF8083023EA0202CCF812
:100F100008200B684F2B29DC1F2B45DD202B46D0EA
:100F2000302B44D0402B40F0AF80D1F804E0C968AA
:100F3000DCF82030DCF8202022F00102CCF8202060
:100F4000DCF8182022F0F00242EA011123F00A0234
:100F500042EA0E02CCF81810CCF82020DCF8081079
:100F600041F0470121F0300128E000BF6F2B33DD55
:100F7000B3F5005F74D0B3F5805F21D0702B40F0E3
:100F80008380D1E901E3C968DCF8082043EA0E0355
:100F900022F47F4243EA01211143CCF80810DCF827
:100FA000081041F0770109E00BB1102B6CD1DCF88F
:100FB000081021F07001194341F00701CCF8081026
:100FC0000022012180F83D10002180F83C10BDE88E
:100FD00080401046704700BF502B21D0602B53D16A
:100FE000D1F804E0C968DCF82030DCF8202022F0D9
:100FF0001002CCF82020DCF8182022F4704242EADB
:10100000013123F0A00242EA0E12CCF81810CCF8FD
:101010002020DCF8081041F0670121F01001CDE735
:10102000D1F804E0C968DCF82030DCF8202022F098
:101030000102CCF82020DCF8182022F0F00242EA6D
:10104000011123F00A0242EA0E02CCF81810CCF883
:101050002020DCF8081041F0570121F02001ADE715
:10106000D1E901E3C968DCF8082043EA0E0322F461
:101070007F4243EA01211143CCF80810DCF8081044
:1010800041F480419AE700BF01229AE780B586B01B
:10109000006840F60001C4F2000188424FF00001F0
:1010A000CDE90411CDE9021116D0B0F1804F2ED157
:1010B00041F21800C4F20200016841F0040101602D
:1010C0000068032100F004000190019840F6000040
:1010D000C4F2010014E000BF41F21800C4F20200A3
:1010E000016841F0080101600068802100F00800FB
:1010F0000190019840F60000C4F2010000F5806004
:10110000029102210391059102A9FFF70BF906B0A4
:1011100080BD000090F83C30012B04BF02207047D6
:101120004FEAB202032A00F2F1802DE9F043DFE832
:1011300002F003A53B7500BF036842F600461D6A36
:101140001A6AC4F2010622F001021A621A465C68A9
:1011500052F818CFB3428E68D1F800E025F00205AE
:1011600045EA06050CD1CE68D1E9057824F440742F
:1011700025F00C0526F004063C43354344EA0804F8
:101180002CF0730747EA0E075C609F614F6809699E
:101190005F631D629F6947F008079F619F6927F0A1
:1011A00004079F61A6E000BF036842F600461D6A7F
:1011B0001A6AC4F2010622F480721A621A46D3F83F
:1011C00004C052F81CEFB3428E680C6825F4007519
:1011D00045EA06250FD1CE68D1E90598360240F2DE
:1011E000FF4725F44065BE4335432CF4405748EA99
:1011F000090647EA061C2EF073072743C3F804C00C
:10120000DF614F680969DF631D62DF6947F0080726
:10121000DF61DF6927F00407DF616BE0036842F6F6
:101220000047D3F820C01A6AC4F2010722F48052A2
:101230001A621A465C6852F81C5FD1F800E08E68AA
:10124000BB4204D14F6924F4804444EA87142CF44F
:10125000005747EA063725F4E64646EA0E265C6064
:10126000DE614E6809691E641F62DF6947F400672A
:10127000DF61DF6927F48067DF613AE0036842F6E7
:1012800000461D6A1A6AC4F2010622F010021A62B0
:101290001A46D3F804C052F8184FB3428E68D1F8FA
:1012A00000E025F0200545EA06150FD1CE68D1E90A
:1012B00005986FF0400725F0C00507EA061635438C
:1012C0002CF4406748EA090647EA860C24F4E64411
:1012D00044EA0E27C3F804C09F614F6809699F6301
:1012E0001D629F6947F400679F619F6927F48067CB
:1012F0009F6109021368194311600021BDE8F043A2
:10130000002280F83C200846704700BF01210022DF
:1013100080F83C2008467047002804BF0120704731
:1013200010B590F83D1031B9002180F83C1004460A
:1013300000F070F82046022180F83D10016840F26C
:10134000FF740B68C4F2000442F6004CA142C4F2E0
:10135000010C15DCB1F1804F1AD040F20042C4F20A
:101360000002914214D0A14218DCB1F1804F1DD08F
:1013700040F20042C4F20002914217D01AE000BFCE
:10138000614505D040F60002C4F200029142EAD164
:10139000826823F070031343A142E6DD614505D066
:1013A00040F60002C4F20002914203D1026923F424
:1013B00040731343846923F08002D0F804E0C368CB
:1013C000224361450A60CB62C1F828E002D142693C
:1013D000CCF8302001224A610B69DB0703D00B698E
:1013E00023F001030B6180F8462080F83E2080F84E
:1013F0003F2080F8402080F8412080F8422080F88B
:10140000432080F8442080F8452080F83D200020CB
:1014100010BD000070470000C1B1042908D00829A0
:1014200014BF41224022825C012A05D016E000BF91
:101430003F22825C012A11D10222082910D00429FE
:1014400014BF80F8412080F83F200BE090F83E2048
:10145000012A03D1022280F83E2003E001207047D8
:1014600080F84020006801F01F010122036A8A40D1
:1014700023EA02010162036A42F64441C4F2010117
:101480001A43A1F14403984202620FD040F2FF7167
:10149000C4F20001884213DCB0F1804F1CD040F24E
:1014A0000041C4F20001884216D01CE00A6842F4F0
:1014B00000420A6040F2FF71C4F200018842EBDD95
:1014C00042F60041C4F20101884205D040F6000115
:1014D000C4F20001884206D1816801F007010629A3
:1014E00004BF00207047016841F001010160002045
:1014F0007047000070B586B0002641F21800CDE9B3
:101500000466CDE90266C4F20200016840F60044B8
:1015100041F0080101600068C4F2010400F0080015
:10152000019001984FF40060029001200390032085
:1015300002AD059020462946FEF7F4FE4FF4806088
:10154000CDE90206204629460496FEF7EBFE06B0DA
:1015500070BD0000F0B581B040F60044C4F2010453
:1015600041F2A05620464FF400610022CFF6FF76EC
:10157000FEF7E6FF022000F0BDFC20464FF40061BC
:101580000122FEF7DDFF0A2000F0B4FC20464FF4F4
:1015900000610022FEF7D4FF0025CBF680753746A8
:1015A00020464FF48061FEF7C5FF28B90137F7D315
:1015B000284601B0F0BD00BFFEF75EFE00680025C2
:1015C0000021CBF68075416220464FF48061FEF722
:1015D000B1FF012802D10136F6D3E9E7FEF74CFE50
:1015E0000068416A4EF66020814238BF084600F02C
:1015F00077FF0021C4F2682100F07CFE0021C4F2D4
:10160000C831054600F04DFE00281CBF0025C4F27D
:10161000C835284601B0F0BDFEE70000FEE7000037
:10162000B0B540F60005C4F2010504462846042181
:101630000022FEF785FF284608210122FEF780FFE1
:10164000284610210022FEF77BFF28462021012298
:10165000FEF776FF40F24C10C2F20000006848F23C
:101660001F520068C5F2EB12C16A6143A1FB02126E
:10167000510941638163B0BDB0B540F60005C4F2C5
:1016800001050446284604210122FEF759FF284699
:1016900008210022FEF754FF284610210122FEF700
:1016A0004FFF284620210022FEF74AFF40F24C104F
:1016B000C2F20000006848F21F520068C5F2EB1247
:1016C000C16A6143A1FB0212510941638163B0BD4C
:1016D00010B5044640F24C10C2F2000004602046EF
:1016E0000021FFF799FE20460421BDE81040FFF7D6
:1016F00093BE0000B0B540F60005C4F201050446F3
:10170000284604210022FEF71BFF2846082101225B
:10171000FEF716FF284610210122FEF711FF28468A
:1017200020210022FEF70CFF40F24C10C2F2000014
:10173000006848F21F520068C5F2EB12C16A6143AB
:10174000A1FB0212510941638163B0BDB0B540F6FF
:101750000005C4F201050446284604210122FEF7D3
:10176000EFFE284608210022FEF7EAFE2846102157
:101770000022FEF7E5FE284620210122FEF7E0FECA
:1017800040F24C10C2F20000006848F21F5200689C
:10179000C5F2EB12C16A6143A1FB02125109416318
:1017A0008163B0BD10B540F60000C4F201003C21D9
:1017B00000220024FEF7C4FE40F24C10C2F20000EA
:1017C000006800684463846310BD0000FEE7000009
:1017D000704700007047000040F25012C2F2000251
:1017E00004211060FFF718BE20EAE070B428A8BFFB
:1017F000B4204FF4FA61484341F2C261C0F26C1167
:10180000A0FB010140F25010C2F20000006801F597
:10181000FA71006881637047FEF79EBE7047000052
:10182000FEE7000080B54120FFF790FF4FF44D70B8
:10183000FEF764FDFFF7B6FF2820BDE88040FEF705
:101840005DBD000080B54120FFF754FF4FF44D709F
:10185000FEF754FDFFF7A6FF2820BDE88040FEF705
:101860004DBD00002DE9F04F83B05A20FFF7BCFFBB
:101870003C20FEF743FDFFF76DFE4FF07E5104461E
:1018800000F00FFD40F20008C4F2C83806462046BA
:10189000414600F01BFD40F20009C4F27A490746B8
:1018A0002046494600F012FD002808BF4C46002F94
:1018B00008BF4C460A20002E08BF4C46FEF71EFD0E
:1018C000FFF748FE4FF07E51064600F0EAFC07465F
:1018D0003046414600F0FAFC05463046214600F00D
:1018E000F5FC002808BF2646002D08BF26460A2022
:1018F000002F08BF2646FEF701FDFFF72BFE4FF035
:101900007E51044600F0CDFC05462046414600F0DD
:10191000DDFC07462046314600F0D8FC002808BF11
:101920003446002F08BF34460A20002D08BF344635
:10193000FEF7E4FC2046494600F0A5FC00281CBF49
:101940000024CBF680742046002100F0BFFC002864
:1019500040F0018120464FF0834100F0A2FCB8B96D
:10196000FFF720FF1E20FEF7C9FCFFF71BFF322008
:10197000FEF7C4FC1E20FFF753FEA020FEF7BEFCBE
:10198000FFF710FF2820FEF7B9FC1E20FEF7B6FC7B
:101990000021C4F2E011204600F083FC002840F052
:1019A000DA80FFF7FFFE1420FEF7A8FC0A20FFF7FD
:1019B0001BFF4FF4D270FEF7A1FCFFF7CBFD4FF0F9
:1019C0007E51064600F06DFC40F20008C4F2C838B3
:1019D00005463046414600F079FC40F20009C4F269
:1019E0007A4907463046494600F070FC002808BF97
:1019F0004E46002F08BF4E460A20002D08BF4E4617
:101A0000FEF77CFCFFF7A6FD4FF07E51054600F087
:101A100048FC07462846414600F058FC0446284644
:101A2000314600F053FC002808BF3546002C08BFA3
:101A300035460A20002F08BF3546FEF75FFC2846D2
:101A4000494600F020FC00284FF0AA001CBF0025EA
:101A5000CBF68075FFF7C8FE4FF4D270FEF74EFC50
:101A6000FFF778FD4FF07E51074600F01AFC044660
:101A70003846414600F02AFC06463846494600F002
:101A800025FC002808BF4F46002E08BF4F460A20FD
:101A9000002C08BF4F46FEF731FCFFF75BFD4FF00F
:101AA0007E51064600F0FDFB82463046414600F07E
:101AB0000DFC04463046394600F008FC002808BFFB
:101AC0003E46002C08BF3E460A20BAF1000F08BF70
:101AD0003E46FEF713FC3046494600F0D4FB002892
:101AE0004FF05A001CBF0026CBF68076FFF77CFE35
:101AF0001E20FEF703FC0021C4F2A011284600F0CE
:101B0000DEFB0446002818BF01240BD10021C4F2DB
:101B1000A011304600F0C5FB20B94120FFF716FEAA
:101B200010E000BF0021C4F2A011304600F0B9FB64
:101B3000002818BF01202040012840F07381412077
:101B4000FFF7D8FD4FF44D70FEF7D8FBFFF72AFEE4
:101B50002820FEF7D3FB40F60047C4F20107A7F5A3
:101B6000806528468021FEF7E5FC80460320FEF7CD
:101B7000C5FB28468021FEF7DDFC82460320FEF7E8
:101B8000BDFB28468021FEF7D5FC81460320FEF7E9
:101B9000B5FB38460121FEF7CDFCB0FA80F04609CE
:101BA0000320FEF7ABFB38460121FEF7C3FC0028FB
:101BB0004FF0030008BF0136FEF7A0FB38460121B5
:101BC000FEF7B8FC00284FF0030008BF0136FEF70F
:101BD00095FB38460221FEF7ADFCB0FA80F04409CF
:101BE0000320FEF78BFB38460221FEF7A3FC0028FA
:101BF0004FF0030008BF0134FEF780FB3846022196
:101C0000FEF798FC00284FF0030008BF0134FEF7F0
:101C100075FB022E18D2B8FA88F04009BAF1000F0D
:101C200008BF0130B9F1000F08BF013002282DD3E1
:101C3000012C2BD84120FFF75DFD642003B0BDE8E7
:101C4000F04FFEF75BBB00BF0095FEF77FFC04463C
:101C5000FEF77CFC02905A20FFF7C6FD3C20FEF701
:101C60004DFBFEF773FC0546001B41F27071884284
:101C700001941BD9FFF796FD009E304640210022BB
:101C800003B0BDE8F04FFEF75BBC00BF012800F2D7
:101C90008380022CC0F080804120FFF757FD642034
:101CA00003B0BDE8F04FFEF729BB00BF40F20009CA
:101CB00040F2000BC4F2C839C4F27A4B3846012115
:101CC000FEF738FC0028D5D1BA46FFF743FC4FF0A9
:101CD0007E51044600F0E5FA06462046494600F0EB
:101CE000F5FA07462046594600F0F0FA002808BFEA
:101CF0005C46002F08BF5C460A20002E08BF5C46E9
:101D0000FEF7FCFAFFF726FC4FF07E51804600F00C
:101D1000C8FA06464046494600F0D8FA074640460B
:101D2000214600F0D3FA002808BFA046002F08BFC4
:101D3000A0460A20002E08BFA046FEF7DFFA404664
:101D4000594600F0A0FA00281CBF40F20008CBF66C
:101D500080784046002100F0B9FA28B940464FF09B
:101D6000834100F09EFA08B3029840F2DD51281A30
:101D7000884271D21920FFF77FFC1E20FEF7BEFAC1
:101D8000FEF7E4FB0546019841F27171281A88427A
:101D9000574693D36EE700BF2D20FFF76DFC3C2024
:101DA00003B0BDE8F04FFEF7A9BA00BFFFF7FAFC99
:101DB0005020FEF7A3FAFEF7C9FB0446FEF7C6FB68
:101DC000001B8008009E4A280FD800BF5046012102
:101DD000FEF7B0FB002879D10A20FEF78FFAFEF754
:101DE000B5FB001BB0F5967FF0D3FEF7AFFB0446C2
:101DF000304640210122FEF7A3FBFEF7A7FB001BA4
:101E000040F6B73188423FF638AF40F6B83500BFEC
:101E10001420FEF773FAFEF799FB001BA842F7D3D4
:101E20002BE700BF0021C4F2A011284600F047FABA
:101E300000284FD10021C4F2A011304600F03FFA33
:101E4000002847D12846314600F040FA00284DD0FE
:101E5000FFF7F8FC7FE600BFFFF7A4FC5020FEF779
:101E60004DFAFEF773FB0446FEF770FB001B80087B
:101E7000009E4A280ED800BF50460121FEF75AFBAB
:101E800020BB0A20FEF73AFAFEF760FB001BB0F514
:101E9000967FF1D3FEF75AFB0446304640210122DB
:101EA000FEF74EFBFEF752FB001B40F6B7318842AF
:101EB0003FF6E3AE40F6B8351420FEF71FFAFEF702
:101EC00045FB001BA842F7D3D7E600BF03B0BDE82F
:101ED000F08F00BF1E20FFF7A3FBFA20FEF70EFADB
:101EE000FFF760FC1E20FEF709FA16E6FFF79AFCE2
:101EF00031E6000040F27001C2F20001096881B1D0
:101F0000096800224A6206E04A6A824228BF704796
:101F10004A6A824205D24A6A824202D24A6A8242AE
:101F2000F2D3704792B0FEF725FB00240120CDE9E3
:101F30000B44CDE9094406900A904FF4E0104FF4A9
:101F4000803102250F9006A8CDE90714CDE90D5187
:101F5000FEF784FC20B1EFF3108072B6FEE700BFFD
:101F60000F20CDE900054FF48060CDE903046846F9
:101F700002210294FEF794FB20B1EFF3108072B6B9
:101F8000FEE700BF002741F21800CDE90877CDE950
:101F90000677C4F20200016840F6000841F0200113
:101FA00001600168C4F2010801F02001009100996C
:101FB0000168002241F00401016001687C2401F005
:101FC000040100910099016841F008010160006876
:101FD0007C2100F00800009000984046FEF7B0FA1F
:101FE00008F5806528464FF4006100224FF400692F
:101FF000FEF7A6FA06AE06944FF0010A0224404608
:102000003146CDE907A70994FEF78CF98020CDE988
:102010000607404631460897FEF784F940F2034030
:10202000CDE90607284631460897FEF77BF9284692
:102030003146CDE9069ACDE90874FEF773F940F20E
:102040007400C2F200004FF0804140F2E733039782
:10205000CDE90177CDE91077CDE90B77CDE90977A7
:10206000472280E88600C0E903378761FEF74CFE0F
:1020700020B1EFF3108072B6FEE700BF4FF480503E
:10208000009040F27400C2F200006946FEF72EFF95
:1020900020B1EFF3108072B6FEE700BF40F274008B
:1020A000C2F20000FFF738F920B1EFF3108072B6EA
:1020B000FEE700BF40F27400C2F2000010A9FEF774
:1020C000E3FD28B1EFF3108072B600BFFEE700BF5A
:1020D000602006900020CDE907000A9040F27400CD
:1020E000C2F2000006A90022FFF714F820B1EFF3B6
:1020F000108072B6FEE700BF40F27400C2F200002A
:1021000006A90422FFF706F820B1EFF3108072B69B
:10211000FEE700BF40F27400C2F20000FEF7B6FF17
:1021200040F2BC000021A8F58232C2F20000472331
:102130004FF6FF770991CDE90711CDE90011C0E90C
:102140000023C0E9021701618161FEF7DDFD28B1BE
:10215000EFF3108072B600BFFEE700BF4FF480506F
:10216000069040F2BC00C2F2000006A9FEF7BEFED7
:1021700020B1EFF3108072B6FEE700BF40F2BC0062
:10218000C2F200006946FEF77FFD18B1EFF3108040
:1021900072B6FEE740F204100021A8F58032C2F2C8
:1021A0000000472344F61F670391CDE90111CDE9F3
:1021B0001011CDE90B11CDE90911C0E90023C0E9E7
:1021C000021701618161FEF79FFD18B1EFF31080E6
:1021D00072B6FEE74FF48050009040F20410C2F255
:1021E00000006946FEF782FE20B1EFF3108072B660
:1021F000FEE700BF40F20410C2F20000FFF78CF8C7
:1022000020B1EFF3108072B6FEE700BF40F2041079
:10221000C2F2000010A9FEF737FD18B1EFF31080ED
:1022200072B6FEE7602006900020CDE907000A9014
:1022300040F20410C2F2000006A90422FEF76AFF71
:1022400020B1EFF3108072B6FEE700BF40F2041435
:10225000C2F200042046FEF719FF40F2BC00C2F2B1
:102260000000FEF70FF840F27400C2F20000FFF722
:102270002FFA2046FFF7B0FAFFF73CF9FEF70AF80D
:10228000FFF7F0FAFCE710B500F0F6F80CBF0120FC
:10229000002010BD10B500F0EFF814BF01200020A1
:1022A00010BD10B500F030F98CBF0120002010BD2A
:1022B00010B500F029F92CBF0120002010BD10B589
:1022C00000F056F994BF0120002010BD10B500F0B9
:1022D0004FF934BF0120002010BD401058BFC0F19D
:1022E0004040491058BFC1F140418142EFF30080A6
:1022F000704700004FF47F0C1CEAD0121EBF1CEA8E
:10230000D11392EA0C0F93EA0C0F00F0858090EA4B
:10231000010F48BF42F4807240F4000C41F4000009
:102320002CF07F4120F07F4000B5A2EB03028142F8
:102330000FF2081CACEB504E9EF800E0C0F100001C
:102340004FEA4E0E00FB0EFC38BF49004FEA2C1C32
:102350000CFB0EF34FEACE1E0EEB635E4FEA112C20
:102360000EFB0CFC4FEAC1214FEA1C5300FB03118A
:1023700002F5FA024FEA112C0EFB0CFC4FEA013178
:102380004FEADC4C00FB0C1142EB2242C14228BF59
:1023900009184CEB03335DF804EB10EB410143EB00
:1023A000C250B2F57C0F38BF704729D512F0F00F3C
:1023B0001CBF00F1C04000F00040704700818283E4
:1023C0008485868788898B8C8D8E8F919293959644
:1023D00097999A9C9D9FA0A2A3A5A7A8AAACAEB0CE
:1023E000B2B3B5B7B9BCBEC0C2C5C7C9CCCED1D4D3
:1023F000D7D9DCDFE2E6E9ECF0F3F7FAFE00000003
:102400004FEA400C0CF1807CBCF17E4F28BF704736
:10241000B0F1C04000F026B90CEAD11390EA010FE8
:1024200048BF42F48072624538BF634507D213F457
:102430007F0F16D080EA010000F00040704710B511
:1024400000F0CAF8097EFC3E00F005B880EA010001
:1024500000F00040704780EA010000F0004000F00A
:1024600001B912F47F0F04BF0248704780EA0100EF
:1024700000F0F8B80000C07F50EA010C00F11380B2
:102480001CF5000F58BFBCF5000F01D488427047FF
:1024900007D710F5000F58BF11F5000F15D488426B
:1024A0007047894270471CF5000F04D5BCF5000F3A
:1024B000F7D5814270474FF0807C1CEB400F38BF4E
:1024C0001CEB410F01D28142704710B500F084F837
:1024D000922449004FF000504FF08051FFF7FDBEAD
:1024E000B0FA80F310FA03F2C3F19D030AD0D905C4
:1024F00001EB1220530638BF704700F1010008BFFE
:1025000020F001007047000050EA010C00F1138038
:102510001CF5000F58BFBCF5000F01D4884270476E
:1025200007D710F5000F58BF11F5000F15D48842DA
:102530007047894270471CF5000F04D5BCF5000FA9
:10254000F7D5814270474FF0807C1CEB400F38BFBD
:102550001CEB410F01D28142704710B500F03CF8EE
:10256000922449004FF080504FF00051FFF7B5BE64
:1025700050EA010C00F113801CF5000F58BFBCF5A8
:10258000000F01D48842704707D710F5000F58BFDD
:1025900011F5000F15D488427047894270471CF529
:1025A000000F04D5BCF5000FF7D5814270474FF0FE
:1025B000807C1CEB400F38BF1CEB410F01D28142E5
:1025C000704710B500F008F8922449004FF0005011
:1025D0004FF08051FFF781BE0EF1020E2EF0030E78
:1025E0005EF8044B244204D44FEA4102B2F17F4F1B
:1025F00011D84FEA4003B3F17F4F0CD80ED14FEA08
:10260000D07C0CEB4C0C0CF1020CB2F17F4F08BFEC
:102610004CEBD17C04E04FF0080C01E04FEAD17C98
:102620000CEB4C0324FA03F404F00704B4F1040C9B
:1026300006D20EEB840CBDE810404CF0010C604754
:10264000DFE80CF0070802024FF00040A0F5800020
:1026500010BD0846420018BFD2F1807288BF00F05A
:10266000004010BDFF2141EAD050C0057047000076
:10267000000000000000010203040607080901022F
:1026800002030405060708090A0B0C0D0E0F1010B3
:10269000B0260008000000201000000050010008D3
:1026A000C026000810000020480700007001000844
:1026B000010000001000000000127A00000000007D
:04000005080000ED02
:00000001FF
